:0400000064EF01F0B8
:100008004982FACF28F0FBCF29F0E9CF2AF0EACFCE
:100018002BF0E1CF2CF0E2CF2DF0D9CF2EF0DACFB4
:100028002FF0F3CF30F0F4CF31F0F6CF32F0F7CF36
:1000380033F0F8CF34F0F5CF35F049C036F04AC088
:1000480037F04BC038F04CC039F0F2A489D0630EB9
:10005800D76EBF0ED66EF29426802350D8B407D040
:1000680023062350D8A403D0010E0001A76F225005
:10007800D8B407D022062250D8A403D0010E00011C
:10008800A46F4750D8A44706320E4718D8A40ED0FC
:1000980026A402D0010E01D0000EFF0A276E2746C3
:1000A800274626502718FB0B2718266E4750D8A43A
:1000B80014D0640E476E26A602D0010E01D0000EA1
:1000C800FF0A276E27462746274626502718F70B8C
:1000D8002718266E4650D8A446064850D8A4480685
:1000E8004850D8A40FD00A0E486E26A202D0010E9E
:1000F80001D0000EFF0A276E274626502718FD0B51
:100108002718266E1750D8B42BD0000E176E000E85
:100118003C6E090E3C6401D023D03C50020D810E88
:10012800F324D96E000EF420DA6EDECF3AF0DDCF7C
:100138003BF03A503B10D8B405D03A06D8A03B065D
:10014800010E176E3C50020D810EF324D96E000E7D
:10015800F420DA6E3AC0DEFF3BC0DDFF3C2AD9D777
:100168009EAA28D0AECF1DF05F0E1E600BD01E5089
:10017800010D000EF324D96E010EF420DA6E1DC0B5
:10018800DFFF1E2A1E50010D000EF324D96E010E4A
:10019800F420DA6E000EDF6E0D0E1D18D8A402D002
:1001A8000001A92B0A0E1D18D8A402D00001A82B03
:1001B8000A0E236E9DB89EA818D02150010D600E1E
:1001C800F324D96E000EF420DA6EDF50AD6E212ACA
:1001D800200E2118D8A402D0000E216E200620502F
:1001E800D8A403D0000E216E9D98A4AA28D074CF5D
:1001F80018F05F0E19600BD01950010D000EF32492
:10020800D96E020EF420DA6E18C0DFFF192A1950D1
:10021800010D000EF324D96E020EF420DA6E000EE2
:10022800DF6E0D0E1818D8A402D00001A62B0A0EF6
:100238001818D8A402D00001A52B0A0E226EA3B864
:10024800A4A818D01C50010D920EF324D96E010EEB
:10025800F420DA6EDF50736E1C2A200E1C18D8A406
:1002680002D0000E1C6E1B061B50D8A403D0000E33
:100278001C6EA39839C04CF038C04BF037C04AF018
:1002880036C049F035C0F5FF34C0F8FF33C0F7FF7A
:1002980032C0F6FF31C0F4FF30C0F3FF2FC0DAFFE1
:1002A8002EC0D9FF2DC0E2FF2CC0E1FF2BC0EAFF12
:1002B8002AC0E9FF29C0FBFF28C0FAFF49921100B4
:1002C800A0EF07F0426E5DD24150D8A403D09290BF
:1002D80089901200020E4118D8A403D09280899008
:1002E8001200030E4118D8A405D09280000E5EECCF
:1002F8000AF012009280899012004150D8A403D0CD
:10030800929289921200020E4118D8A403D09282C8
:1003180089921200030E4118D8A405D09282010ECA
:100328005EEC0AF012009282899212004150D8A421
:1003380003D0929489941200020E4118D8A403D0D5
:10034800928489941200030E4118D8A405D092848F
:10035800020E5EEC0AF01200928489941200415059
:10036800D8A403D0929689961200020E4118D8A4F8
:1003780003D0928689961200030E4118D8A405D09E
:100388009286030E5EEC0AF012009286899612009D
:100398004150D8A403D0929889981200020E4118AF
:1003A800D8A403D09288899812009288899812005C
:1003B8004150D8A403D0929A899A1200020E41188B
:1003C800D8A403D0928A899A1200030E4118D8A49F
:1003D80005D0928A040E5EEC0AF01200928A899A7D
:1003E80012004150D8A403D0929C899C1200020E9E
:1003F8004118D8A403D0928C899C1200928C899CB5
:1004080012004150D8A403D0929E899E1200020E79
:100418004118D8A403D0928E899E1200928E899E8C
:1004280012004150D8A403D093908A901200020E73
:100438004118D8A403D093808A90120093808A90A0
:1004480012004150D8A403D093928A921200020E4F
:100458004118D8A403D093828A92120093828A9278
:1004680012004150D8A403D093948A941200020E2B
:100478004118D8A403D093848A94120093848A9450
:1004880012004150D8A403D093968A961200020E07
:100498004118D8A403D093868A96120093868A9628
:1004A80012004150D8A403D093988A981200020EE3
:1004B8004118D8A403D093888A98120093888A9800
:1004C80012004150D8A403D0939A8A9A1200020EBF
:1004D8004118D8A403D0938A8A9A1200938A8A9AD8
:1004E80012004150D8A403D0939C8A9C1200020E9B
:1004F8004118D8A403D0938C8A9C1200938C8A9CB0
:1005080012004150D8A403D0939E8A9E1200020E76
:100518004118D8A403D0938E8A9E1200938E8A9E87
:1005280012004150D8A403D094908B901200020E70
:100538004118D8A403D094808B90120094808B909B
:1005480012004150D8A403D094928B921200020E4C
:100558004118D8A403D094828B92120094828B9273
:1005680012004150D8A403D094948B941200020E28
:100578004118D8A403D094848B94120094848B944B
:1005880012004150D8A403D094968B961200020E04
:100598004118D8A403D094868B96120094868B9623
:1005A80012004150D8A403D094988B981200020EE0
:1005B8004118D8A403D094888B98120094888B98FB
:1005C80012004150D8A403D0949A8B9A1200020EBC
:1005D8004118D8A403D0948A8B9A1200948A8B9AD3
:1005E80012004150D8A403D0949C8B9C1200020E98
:1005F8004118D8A403D0948C8B9C1200948C8B9CAB
:1006080012004150D8A403D0949E8B9E1200020E73
:100618004118D8A403D0948E8B9E1200948E8B9E82
:1006280012004150D8A403D095908C901200020E6D
:100638004118D8A403D095808C90120095808C9096
:1006480012004150D8A403D095928C921200020E49
:100658004118D8A403D095828C92120095828C926E
:1006680012004150D8A403D095948C941200020E25
:100678004118D8A403D095848C94120095848C9446
:1006880012004150D8A403D095968C961200020E01
:100698004118D8A403D095868C96120095868C961E
:1006A80012004150D8A403D095988C981200020EDD
:1006B8004118D8A403D095888C98120095888C98F6
:1006C80012004150D8A403D0959A8C9A1200020EB9
:1006D8004118D8A403D0958A8C9A1200958A8C9ACE
:1006E80012004150D8A403D0959C8C9C1200020E95
:1006F8004118D8A403D0958C8C9C1200958C8C9CA6
:1007080012004150D8A403D0959E8C9E1200020E70
:100718004118D8A403D0958E8C9E1200958E8C9E7D
:1007280012004150D8A403D096908D901200020E6A
:100738004118D8A403D096808D90120096808D9091
:1007480012004150D8A403D096928D921200020E46
:100758004118D8A403D096828D92120096828D9269
:1007680012004150D8A403D096948D941200020E22
:100778004118D8A403D096848D94120096848D9441
:1007880012004250000AD8B49FD5010AD8B4B5D592
:10079800030AD8B4CBD5010AD8B4E1D5070AD8B42E
:1007A800F7D5010AD8B404D6030AD8B41AD6010A70
:1007B800D8B427D60F0AD8B434D6010AD8B441D64B
:1007C800030AD8B44ED6010AD8B45BD6070AD8B4FF
:1007D80068D6010AD8B475D6030AD8B482D6010AF5
:1007E800D8B48FD61F0AD8B49CD6010AD8B4A9D6D3
:1007F800030AD8B4B6D6010AD8B4C3D6070AD8B4FF
:10080800D0D6010AD8B4DDD6030AD8B4EAD6010A8C
:10081800D8B4F7D60F0AD8B404D7010AD8B411D778
:10082800030AD8B41ED7010AD8B42BD7070AD8B4FC
:1008380038D7010AD8B445D7030AD8B452D7010A21
:10084800D8B45FD73F0AD8B46CD7010AD8B479D7DF
:10085800030AD8A4120085D73D6E000E3E6EAFD0B5
:10086800000E80B0010E3E6E14D1000E80B2010E53
:100878003E6E0FD1000E80B4010E3E6E0AD1000EFE
:1008880080B6010E3E6E05D1000E80B8010E3E6E98
:1008980000D1000E80BA010E3E6EFBD0000E80BC67
:1008A800010E3E6EF6D0000E80BE010E3E6EF1D0F7
:1008B800000E81B0010E3E6EECD0000E81B2010E2A
:1008C8003E6EE7D0000E81B4010E3E6EE2D0000EFF
:1008D80081B6010E3E6EDDD0000E81B8010E3E6E6F
:1008E800D8D0000E81BA010E3E6ED3D0000E81BC66
:1008F800010E3E6ECED0000E81BE010E3E6EC9D0F6
:10090800000E82B0010E3E6EC4D0000E82B2010EFF
:100918003E6EBFD0000E82B4010E3E6EBAD0000EFD
:1009280082B6010E3E6EB5D0000E82B8010E3E6E44
:10093800B0D0000E82BA010E3E6EABD0000E82BC63
:10094800010E3E6EA6D0000E82BE010E3E6EA1D0F4
:10095800000E83B0010E3E6E9CD0000E83B2010ED5
:100968003E6E97D0000E83B4010E3E6E92D0000EFC
:1009780083B6010E3E6E8DD0000E83B8010E3E6E1A
:1009880088D0000E83BA010E3E6E83D0000E83BC61
:10099800010E3E6E7ED0000E83BE010E3E6E79D0F3
:1009A800000E84B0010E3E6E74D0000E84B2010EAB
:1009B8003E6E6FD0000E84B4010E3E6E6AD03D507C
:1009C800000AD8B44DD7010AD8B44FD7030AD8B40F
:1009D80051D7010AD8B453D7070AD8B455D7010A52
:1009E800D8B457D7030AD8B459D7010AD8B45BD7B3
:1009F8000F0AD8B45DD7010AD8B45FD7030AD8B4B0
:100A080061D7010AD8B463D7070AD8B465D7010AF1
:100A1800D8B467D7030AD8B469D7010AD8B46BD752
:100A28001F0AD8B46DD7010AD8B46FD7030AD8B44F
:100A380071D7010AD8B473D7070AD8B475D7010A91
:100A4800D8B477D7030AD8B479D7010AD8B47BD7F2
:100A58000F0AD8B47DD7010AD8B47FD7030AD8B40F
:100A680081D7010AD8B483D7070AD8B485D7010A31
:100A7800D8B487D7030AD8B489D7010AD8B48BD792
:100A88003F0AD8B48DD7010AD8B48FD7030AD8B48F
:100A980091D73E501200E90E0101EC6F010EED6F87
:100AA8007BD0250EF119D8B409D0E5C1D9FFE6C12C
:100AB800DAFFF1C1DFFFE54BE62B6ED0000EEB6FDE
:100AC80003D0C00EEB1311D0E7C1F6FFE8C1F7FF62
:100AD800E74BE82B0800F5CFF1F1F151000AD8B443
:100AE80067D0750AD8B4EDD757D0ECC1D9FFEDC19E
:100AF800DAFFDECFEEF1DDCFEFF1020EEC27000ECC
:100B0800ED23010EF16F11D0F151020DC50EF32442
:100B1800F66E7D0EF420F76E0900F550EE5D0900C3
:100B2800F550EF59D8A005D0F12B050EF119D8A42E
:100B3800EBD7F1C1F0F12CD0F051020DC50EF32422
:100B4800F66E7D0EF420F76E0900F5CF3FF00A002F
:100B5800F5CF40F0EEC13DF0EFC13EF0F1EC08F00A
:100B68003DC0FAF03EC0FBF0000E0001FD6F0A0E1A
:100B7800FC6F68EC09F00001FA51300F0101F16FC8
:100B8800E5C1D9FFE6C1DAFFF1C1DFFFE54BE62B8E
:100B9800F007F029D8A4D0D7E7C1F6FFE8C1F7FFDE
:100BA800E74BE82B0800F5CFF1F1F151D8A479D73C
:100BB800E5C1D9FFE6C1DAFF000EDF6E12000101C0
:100BC800ED6FE5C13DF0E6C13EF0E7C13FF0E8C199
:100BD80040F00A0E416E000E426E000E436E000E8B
:100BE800446E1CEC07F03DC0E5F13EC0E6F13FC0A5
:100BF800E7F140C0E8F1000E3D6E900E3E6ED00E5B
:100C08003F6E030E406EE5C141F0E6C142F0E7C118
:100C180043F0E8C144F01CEC07F03DC0E5F13EC0EC
:100C2800E6F13FC0E7F140C0E8F1E5C1E9F1E6C10E
:100C3800EAF1E7C1EBF1E8C1ECF1030E06D00101DE
:100C4800D890EC33EB33EA33E933E82EF8D7E9C12F
:100C5800E5F1EAC1E6F1EBC1E7F1ECC1E8F1050E17
:100C6800E525E56F000EE621E66F000EE721E76F48
:100C7800000EE821E86FE5C13DF0E6C13EF0E7C1AE
:100C88003FF0E8C140F00A0E416E000E426E000EC1
:100C9800436E000E446E1CEC07F03DC0E5F13EC00B
:100CA800E6F13FC0E7F140C0E8F10101E507000EB9
:100CB800E65BE75BE85BE6C1EFF1E5C1EEF1ED0568
:100CC800D8A405D0EFC1B0FFEEC1AFFF1200EFC14D
:100CD80076FFEEC175FF1200F40E0101E56F010EFB
:100CE800E66F2D0EE76F7F0EE86FF2C13DF0F3C19E
:100CF8003EF0C8EC08F0020E3D240101E96F000E39
:100D08003E20EA6F4FEC05F0000E0101B36FB30E01
:100D18003D6E010E3E6E550E3F6E7E0E406EC6EC69
:100D280009F0B30E3D6E010E3E6EC30E3F6E7E0E91
:100D3800406E9CEC08F0B30E3D6E010E3E6EF40E54
:100D48003F6E010E406E9CEC08F0B30E416E010E32
:100D5800426E6FEC0AF0E80E0101E56F030EE66FD4
:100D6800000EE76F000EE86F000EDFEC07F08AEC6C
:100D780009F03E0AD8B406D0000EF4EC09F00009D8
:100D8800D8A4F5D7000E3E6E640E3D6E0AEC0AF04C
:100D9800F2C141F0F3C142F06FEC0AF01200010E0B
:100DA8000101E96F2450D8A402D0010E01D0000E31
:100DB8000001E96FE951D8B413D0000E0101606F4A
:100DC800B80EE56F0B0EE66F000EE76F000EE86FCA
:100DD800000EDFEC07F024C0E9F0010E0101E96F15
:100DE8009DEC0AF00009D8B415D0B80E0101E56FE2
:100DF8000B0EE66F000EE76F000EE86F000EDFECDB
:100E080007F08AEC09F01AEC09F0010E0001E96F0D
:100E1800000E246E000EDEEC09F00009D8B403D0F1
:100E2800000E0101E96F0101E905D8A41200D8D725
:100E3800000E0001FA6F000EFB6F000EFC6F000E33
:100E4800FD6F4150421043104410D8B42AD0010E0F
:100E5800FE6F06D0D8904136423643364436FE2BD4
:100E680044AEF8D7D890FA37FB37FC37FD374150F6
:100E78003D5C42503E5843503F5844504058D8A0DB
:100E880009D041503D5E42503E5A43503F5A44506B
:100E9800405AFA81D8904432433242324132FE2FCE
:100EA800E1D7FAC03DF0FBC03EF0FCC03FF0FDC00A
:100EB80040F01200700ED36E040ED26E400E9B6E80
:100EC800D2AEFED7000E0F01386F000E396F000E3C
:100ED8003A6F000E3B6F000E3C6FB00E426F300E43
:100EE800C16E830EC06E000E896E000E8A6E000EF3
:100EF8008B6E000E8C6E000E8D6E000E3D6E090E10
:100F08003D6401D00ED03D50020D810EF324D96E00
:100F1800000EF420DA6E000EDE6E000EDD6E3D2A45
:100F2800EED7000ED56EF294F28AF184910ED56E4A
:100F3800F28CD08EF28E1200F80EF66E140EF76E4A
:100F4800000EF86E00EEE1F010EE19F00900F5CF92
:100F5800EEFFE550E150FAE1360EF66E150EF76E2B
:100F6800000EF86E00EE45F010EE04F00900F5CF23
:100F7800EEFFE550E150FAE102EE00F0600EEE6A95
:100F8800E806FDE101EE00F0E50EEE6AE806FDE197
:100F980000EE60F0810EEE6AE806FDE100EE01F079
:100FA800260EEE6AE806FDE149904992000EF86EB9
:100FB800000189EF0AF00001FF6F090E0001FF65CB
:100FC80001D01200E5C13DF0E6C13EF0E7C13FF0B7
:100FD800E8C140F00A0E416E000E426E000E436EEC
:100FE800000E446E1CEC07F03DC0E5F13EC0E6F192
:100FF8003FC0E7F140C0E8F10001FF51020D810E4A
:10100800F324D96E000EF420DA6EE5C1DEFFE6C1E6
:10101800DDFF010E176E120014D03FC0F6FF40C06E
:10102800F7FFF86A050EF76403D00800F55005D0FD
:10103800F6CFE9FFF7CFEAFFEF501AEC09F03F4A85
:10104800402A3FC0F6FF40C0F7FFF86A050EF76474
:1010580003D00800F55005D0F6CFE9FFF7CFEAFF37
:10106800EF500009D8A4D9D70D0E1AEC09F00A0ED2
:101078001AEC09F0120014D03FC0F6FF40C0F7FF89
:10108800F86A050EF76403D00800F55005D0F6CFCE
:10109800E9FFF7CFEAFFEF5041EC09F03F4A402A59
:1010A8003FC0F6FF40C0F7FFF86A050EF76403D0AB
:1010B8000800F55005D0F6CFE9FFF7CFEAFFEF506B
:1010C8000009D8A4D9D70D0E41EC09F00A0E41EC5D
:1010D80009F01200800E0101F06F250EF16F000E6D
:1010E800F26F000EF36F35EC0AF0800E0101F06F1D
:1010F800250EF16F000EF26F000EF36F20EC0AF070
:10110800010E416E190E66EC01F00F0E3F6E7F0E58
:10111800406E3FEC08F0950E3F6E7E0E406E10EC70
:1011280008F0190E30EC04F00009D8B41200F9D711
:101138003DC041F03EC042F002D0414A422A41C07F
:10114800D9FF42C0DAFFDF50D8B405D0F6D7414AFC
:10115800422A3F4A402A3FC0F6FF40C0F7FFF86ADC
:1011680041C0D9FF42C0DAFF050EF76403D008007A
:10117800F55005D0F6CFE9FFF7CFEAFFEF50DF6E65
:10118800DF50D8B41200E3D73DC041F03EC042F072
:1011980002D0414A422A41C0F6FF42C0F7FFF86A2E
:1011A800050EF76403D00800F55005D0F6CFE9FF27
:1011B800F7CFEAFFEF500009D8A4EBD73DC03FF0C6
:1011C8003EC040F03F1E401E3F4A402A41503F2447
:1011D8003D6E425040203E6E1200000E436E000EDF
:1011E800426E3F504010D8B41CD0010E416E04D05E
:1011F800D8903F364036412A40AEFAD7D89042368A
:1012080043363F503D5C40503E58D8A005D03F5033
:101218003D5E40503E5A4280D89040323F32412E87
:10122800EDD742C03DF043C03EF012003E6E205064
:10123800D8B416D0200E2018D8B4FCD7F29E20506F
:1012480021241F0B3D6E3D50010D600EF324D96E15
:10125800000EF420DA6E3EC0DFFF202AF28E120064
:101268009EA803D03EC0ADFF1200010E206E000EF6
:10127800216E3EC060F09D8812003E6E1B50D8B4AF
:1012880016D0200E1B18D8B4FCD7F29E1B501C2475
:101298001F0B3D6E3D50010D920EF324D96E010EC9
:1012A800F420DA6E3EC0DFFF1B2AF28E1200A4A8DB
:1012B80003D03EC073FF1200010E1B6E000E1C6EA1
:1012C8003EC092F1A38812000001FC51FD11D8B470
:1012D80018D0010E446E04D0D890FC37FD37442A4C
:1012E800FDAFFAD7FC51FA5DFD51FB59D8A004D0E7
:1012F800FC51FA5FFD51FB5BD890FD33FC33442E63
:10130800F1D7FAC0FAF0FBC0FBF01200000E3D6EF8
:1013180019501A5CD8B016D01A50010D000EF324DB
:10132800D96E020EF420DA6EDF503D6E1A2A19507B
:101338001A18D8A407D0000E1A6E000E196E000EE7
:101348000001A46F3D501200000E3D6E1E501F5C40
:10135800D8B016D01F50010D000EF324D96E010E1F
:10136800F420DA6EDF503D6E1F2A1E501F18D8A4D5
:1013780007D0000E1F6E000E1E6E000E0001A76F34
:101388003D5012003DC041F03EC042F004D0414AF9
:10139800422A3F4A402A3FC0F6FF40C0F7FF41C0FB
:1013A800D9FF42C0DAFF0800F5CFDFFFDF50D8B41D
:1013B8001200EDD73F6E090E3F6402D0000E1200F6
:1013C8003F50020D810EF324D96E000EF420DA6E20
:1013D800DE50DE10D8B402D0000E1200010E12004A
:1013E8003F6E090E3F6402D0000E12003F50020DFE
:1013F800810EF324D96E000EF420DA6EDE50DE1072
:10140800D8B402D0010E1200000E120004000FD052
:101418003D06D8A03E06040E406E100E3F6E03D067
:101428003F06D8A040063F504010D8A4F9D73D50F9
:101438003E10D8B41200ECD7F0C1E5F1F1C1E6F1E5
:10144800F2C1E7F1F3C1E8F1010EE3EC05F0B8866B
:10145800240EAC6E900EAB6E9D8A9D989F889F8AD5
:101468001200F0C1E5F1F1C1E6F1F2C1E7F1F3C113
:10147800E8F1020EE3EC05F07086240E726E900E11
:10148800716EA38AA398A588A58A12009FEC0AF01A
:101498000009D8B404D0A8EC09F041EC09F09DEC9F
:1014A8000AF00009D8B4F2D78AEC09F01AEC09F06E
:1014B800EDD7FFD73F6E3FC03DF0010E3E6E3D2A8F
:1014C80002D0D8903E363D2EFCD73E50406E40505C
:1014D8000F013813120041C03FF042C040F03FEC0A
:1014E80008F041C03FF042C040F010EC08F0120094
:1014F800147F597EEC7E237F0154657374696E678F
:09150800204265726A61796100FC
:101512005EEC07F06EEC08F0040095EC0AF04AEC81
:101522000AF0A1EC0AF0F8D7269E26A01200269017
:10153200268E12000C3C640A195012001E50120032
:02154200120095
:107DC4000001000A006400E80310275A4459325A9B
:107DD40057566C5A444174596A51794E4330304D68
:107DE4004455774C5468694E6D45744D4451324E38
:107DF4007A51774D6A517759574D34005A584E7716
:107E040062574E314F55426E625746706243356A2F
:107E14006232303D006B696E6764696177656873CF
:107E2400757440676D61696C2E636F6D004D616997
:107E34006C2046726F6D20455350383236360065DB
:107E440073706D63753940676D61696C2E636F6D16
:107E54000041542B00736D74702E656C61737469EA
:107E640063656D61696C2E636F6D004349505354B3
:107E74004152543D342C22544350222C2200454874
:107E84004C4F2035342E33382E3232362E313430A6
:107E94000050726573732050423120746F20537404
:107EA400617274004349505345525645523D312C3A
:107EB4003830004D41494C2046524F4D3A3C004326
:107EC400495053454E443D342C0041555448204CB0
:107ED4004F47494E005243505420544F3A3C0043BC
:107EE40049504D55583D310061613131323233339F
:107EF4000043574D4F44453D33005355424A454393
:107F0400543A0043574A41503D2200415445300001
:107F14003235323500444154410051554954004BE7
:107F2400647700222C004154002575002E003E0089
:017F3400004C
:020000040020DA
:08000000FFFFFFFFFFFFFFFF00
:020000040030CA
:0E000000FF251F3FFFBF85FF0FC00FE00F4021
:00000001FF
